:020000041000EA
:1000000000B5324B212058609868022188439860DF
:10001000D860186158612E4B002199600221596106
:100020000121F02299502B49196001219960352056
:1000300000F044F80222904214D00621196600F024
:1000400034F8196E01211966002018661A6600F04E
:100050002CF8196E196E196E052000F02FF8012189
:100060000842F9D1002199601B49196000215960AB
:100070001A491B48016001219960EB211966A021F2
:10008000196600F012F800219960164914480160C1
:100090000121996001BC002800D000471248134993
:1000A000086003C880F30888084703B5996A0420EC
:1000B0000142FBD001200142F8D103BD02B5186610
:1000C0001866FFF7F2FF186E186E02BD00000240BE
:1000D000000000180000070000035F00212200005C
:1000E000F4000018222000A00001001008ED00E03C
:1000F00000000000000000000000000074B24E7A12
:1001000000200420F7010010C3010010C5010010F9
:10011000C1010010C1010010C1010010C101001097
:10012000C1010010C1010010C1010010C701001081
:10013000C1010010C1010010C9010010CB01001065
:10014000CD010010CD010010CD010010CD01001037
:10015000CD010010CD010010CD010010CD01001027
:10016000CD010010CD010010CD010010CD01001017
:10017000CD010010CD010010CD010010CD01001007
:10018000CD010010CD010010CD010010CD010010F7
:10019000CD010010CD010010CD010010CD010010E7
:1001A000CD010010CD010010CD010010CD010010D7
:1001B000CD010010CD010010CD010010CD010010C7
:1001C00000BE00BE00BE00BE00BE00BEEFF3058054
:1001D000103800BEF2EB887198EE0010C4EE0010EB
:1001E0003402001090A31AE700201F49086006C8D7
:1001F00081F3088810471D48006800282FD10DA4FE
:100200000ECC002902D000F012F8F9E71849194A7B
:10021000002000E001C19142FCD1174988471749ED
:1002200088471749884700BEFDE701C901C29A42C5
:10023000FBD37047C4EE0010C0000020281D002032
:100240002C0B011000000420000004202C0B0110D6
:10025000001004200010042000000000704709482E
:1002600002F09AF90047000008ED00E0000000D01D
:10027000281D0020C82D0020DD230010E5070010F8
:10028000052500105756000006005250ABB36053CE
:1002900034E3001006005250861C030244E30010B1
:1002A000060052505422A29D4CE30010050052500B
:1002B000DE65F4682C0B0110F8B5C0460648074906
:1002C000091A8B10C90FC91810B5491003D0044B77
:1002D000002B00D0984710BD281D0020281D0020AD
:1002E00000000000054B10B5002B03D00449054861
:1002F00000E000BFFFF7E2FF10BDC04600000000B5
:10030000402D0020F8E10010F0B5D64646464F4695
:10031000C0B54A4C4A4BA54406AD2A0013CB13C2C4
:1003200003CB03C219880CAC11809B789370220018
:10033000444B43CB43C203CB03C2198811809B7843
:10034000937003F06BF90CF0B5FC002803D13E4824
:1003500003F0DCF8FEE702ABA0209C46C0000122BF
:100360003A49604409F0D4FD02ABED209C46C00040
:1003700060440122364909F0CBFD0A22290012A867
:1003800009F0AAFE0A222100AAA809F0A5FE314C14
:1003900012A821000AF0AEFD2100AAA80AF0AAFDC9
:1003A0002D4B98462D4B9A46792399467821434602
:1003B0004A46985C5A5C9042FAD04A4698469B5C02
:1003C0005A1DD20042441168526804910592424677
:1003D000DEB25B00D05A02F035FF214902F02BFF5C
:1003E000E621890502F027FF02F04EFF083676006D
:1003F00046440400B0880D0002F024FF184902F0C2
:100400001AFFE621890502F016FF02F03DFF049A6B
:10041000059B06000F000094019551460296039734
:1004200012A80AF067FD049A059B514602960397AD
:1004300000940195AAA80AF05DFDB7E728F6FFFF32
:1004400064E200107CE20010F8E1001020E20010ED
:1004500024E2001028E20010501D002050E200109D
:100460003333534030B5194C85B0200018490CF097
:10047000D1FF0321042000F0C7F90321052000F07B
:10048000C3F900220121042000F0D6F90022012145
:10049000052000F0D1F93E23002502AAFF33138086
:1004A0003C3B2821FF3B200000950CF0DBFF1E2089
:1004B00001F0D4F83B2303AA1380282120000095E3
:1004C000393B0CF0CFFF05B030BDC046B01700205F
:1004D000801A0600F0B5DE4657464E464546E0B562
:1004E000B04B8DB00893052309930CF015FF1F2125
:1004F0001A2000F089F9002200211A2000F09CF94E
:1005000000211A2000F0BAF90CF006FF1F211B2071
:1005100000F07AF9002200211B2000F08DF9002163
:100520001B2000F0ABF9D024FFF79CFF062000F061
:10053000B9F980254023240663622D02A3610F20B0
:1005400000F0B0F965629848A561656101F086F830
:1005500008AEA5610AAC08223100200002F03AFF83
:100560000CF046FE20000CF05FFE4020002101F060
:1005700061F804AB0F259C468C4F654403E05A613B
:1005800030000CF0A7FE0C232B709A460B3B2A0080
:1005900028210093380099460CF064FF00232200C4
:1005A000282100939846380002330CF0C3FF002343
:1005B000E05E02F02FFB00227D4B02F094FA7D4AB0
:1005C0007D4B02F0F9FA00282DD053462B704B4694
:1005D0002A0028210093380001230CF043FF4346F2
:1005E000220028210093380002230CF0A3FF0023EF
:1005F000E05E02F00FFB00226D4B02F074FA6D4AD0
:100600006E4B02F0EFFA00280DD007200A21305679
:1006100001F0F4FFD023802249B21B061202002908
:10062000ADD09A61ACE7D02380221B0612029A61FA
:100630000C232B700B3B2A002821380000930CF070
:1006400011FF0023220028213800009302330CF010
:1006500071FF01F0EFF80490059101F0EBF8002331
:1006600000249B4602930394554F564E01F0E2F846
:10067000029A039B0D0001210400534849421218BD
:100680004B4111001A1E00D074E0504B994200D922
:1006900070E05B46002B03D1D02340321B065A6129
:1006A00001239B46E0223368D2011340484A13607D
:1006B0000422484B1A60FC3233681342FCD0736842
:1006C00032689A4680235B015340E022D2011340F6
:1006D0003F4A136004223F4B1A60FC3233681342D6
:1006E000FCD073680A2199467823F85C984601305B
:1006F00001F084FF7923FB5CC8B2834216D04346E5
:100700005246FB5C5B00FA5243464A46FB5C0833A8
:100710005B00FB189A8043460299039AFB5C053301
:10072000DB00FB1819605A604346F85401F082F868
:10073000049A059B801A99410290039101F07AF87E
:10074000001BA941002904DCF8D1FA235B00984280
:10075000F4D3029B039C002C05DC87D11E4B029A2C
:100760009A4200D882E70DB0F0BCBB46B246A9461B
:10077000A046F0BD0121029A039B18484942121875
:100780004B4111001A1E00D08CE7154B994200D93D
:1007900088E75B46002B00D184E7D02340321B065C
:1007A0009A617DE7E807061488130000B01700205F
:1007B0000000594048E17A14AE873840AE8738C00F
:1007C000501D002000C00440E05EF8FF3F420F00D3
:1007D00000D0044000E00440FFA2E111A01CE9FFAA
:1007E0005FE316000022782110B5054B05485A54E6
:1007F00001315A540CF030FFFFF76CFE002010BDA1
:10080000501D002009030010094A10B594464024E9
:10081000830063441A68C000624080341440802220
:10082000520113431C60034B9C466044416010BD61
:1008300004C0014000400140074B80009C466044DA
:100840000368C90092000A435A400C231A408023CF
:100850005B0103431A60704704C00140064B8000EF
:100860009C466044036809015940802330225B01A3
:100870000A4003431A60704704C00140084B8000DF
:100880009C466044002905D0802340229B010343FD
:100890001A607047C02340229B0103431A60F8E7A7
:1008A00004C001400123D022834012069362936169
:1008B000094A40219446830063441A68C0004A40B4
:1008C000803111408022520113431960034B9C4632
:1008D000052360444360704704C00140004001406C
:1008E000024B18688007C00F7047C04600C0064022
:1008F00070B5EFF3108C72B60D4D2B68002BFCD049
:10090000BFF35F8F0724CB08C618C05C01230C40DF
:10091000A3401C000440034207D118433070BFF3CA
:100920005F8F2C608CF3108870BD100001F0EEFD1D
:100930002C0100D0F8B54746CE46884680B5EFF387
:10094000108C72B6214D2C68002CFCD0BFF35F8F49
:100950009A422CD8D4080727055D061901241740B0
:10096000BC402C421FD007210127894609E0D4084A
:10097000055D06194C4639001440A1400C0029427F
:1009800011D001329342F2D201204042BFF35F8F77
:1009900000220E4B1A608CF3108800280FDBC0BCBD
:1009A000B946B046F8BD254310003570EEE7BFF3F9
:1009B0005F8F00232B608CF3108801204042434658
:1009C000002BECD0089801F0A1FDC0462C0100D00E
:1009D0000021044B044ABFF35F8F02C39342FAD154
:1009E0007047C046000100D0800100D0044A107852
:1009F000431CDBB2172B00D9102313707047C0467D
:100A00000811002010B5064B064C82B0010000937F
:100A100018221F232000FFF78DFF02B010BDC04633
:100A200094E20010B428002001238340002904D060
:100A3000034A1360034A13607047034A1360FBE7DD
:100A400080E200E000E100E080E100E0012282407D
:100A5000034B1B6813405A1E9341D8B27047C046DF
:100A600000E100E001238340014A13607047C04663
:100A700000E200E0084B10309B688000C358002B58
:100A800007D0064A00209B1A2F229A424041C0B24A
:100A900070470020FCE7C04600ED00E00C1100208C
:100AA000024B10309B688000C058704700ED00E09A
:100AB00070B50D00EFF3108672B60F4A1368002B65
:100AC000FCD0BFF35F8F0D4B10309B6884001B5927
:100AD0000B4A934203D09D4201D001F02FFD074BFA
:100AE0009B681D51BFF35F8FBFF35F8F0022024BE6
:100AF0001A6086F3108870BD240100D000ED00E07C
:100B0000CD010010F0B557464E46DE464546E0B5ED
:100B100085B0060000911700EFF3108B72B66A4A99
:100B20001368002BFCD0BFF35F8F0025674B5D5728
:100B30009A46002D00DAA9E06B00654C01935B1921
:100B40009B009846A146C1444B4652469B791036BD
:100B50001370604BB6009B6899590B1B2F2B33D930
:100B60005D4B994200D0ACE0019B42469C465B4BFA
:100B70006544AD0063535A4B0232A218043B9B1AE2
:100B80001B05584A5B0D651913436B80564B0121B9
:100B9000AB80FF23AB71009BEF71AB604B460B4307
:100BA00019004C4B9B689951BFF35F8FBFF35F8F68
:100BB0000022454B1A608BF3108805B0F0BCBB4691
:100BC000B246A946A046F0BD01200A008243D3796F
:100BD0008C46BB4231D84546130044491B1B5B4140
:100BE0005943090D3D4B63533D4B02356519043B99
:100BF0005B1B1B053B4D5B0D2B43AA464D466B8093
:100C00000425AC465546E044131F44441B1B1B05FA
:100C10005B0D1D434B46997100999D809960494633
:100C2000DF71334B01431360BBE75800C0188000ED
:100C30002018C179B9422FD902000623D356002BC0
:100C4000F3DA02932B4B61460393131D9A46042358
:100C50005B429C46E14450464B461B1A1B055B0D0C
:100C60009C46204B957198466346404603439380CB
:100C7000019B5A199200039BA418A380029B1C4A53
:100C8000A371009B2260E771A3608AE701F056FC24
:100C9000002553465D574FE7908802934005131D8A
:100CA0009A46031561469C464046D4446346043048
:100CB0002018181AE0230005400D1B02184303906A
:100CC000C5E701F03BFC4FE7240100D0C12D002017
:100CD0000C11002000ED00E0CD01001000A1FFFF8D
:100CE0003C11002000E0FFFF01BDFFFFAAAA0000A9
:100CF0000148804701BD0000F0B5DE4657464E462C
:100D00004546E0B50C0083B0EFF3108872B65D4A3B
:100D10001368002BFCD0BFF35F8F5B4B5B499A6875
:100D2000030010339F00D5598D4239D0A5424AD0D7
:100D3000574EAA1B2F2A33D8012292468240914651
:100D40004846544A1268104001904846524A106082
:100D5000BFF35F8FEFF305829346002A35D09342AD
:100D600001D001F0EBFB2A0053469A43906884427D
:100D700008D175E04B005B189B00F3189868A042FF
:100D800034D01A00062151560029F3DA844253D098
:100D9000019B002B26D04A46404B1A603D4B1A60FF
:100DA000394B9B68DD51BFF35F8FBFF35F8F00222C
:100DB000344B1A6088F3108803B0F0BCBB46B246CF
:100DC000A946A046F0BD0D00EAE72A0053469A4323
:100DD00090688442D6D1062010561300002809DA04
:100DE0000D0031E04A462C4B1A60D9E70620185610
:100DF000002822DB42001118890074188A46A16875
:100E00009960E179D971062161569971002925DB34
:100E1000A488F11A6405241554440919E02409052D
:100E2000490D24022143998013181D4A9B00117813
:100E3000F31899711070ABE713005946002914D1CB
:100E4000FF3191711749918015490A789A71164AB4
:100E50009B1B5B415A43120D0A7099E71349E2E765
:100E60000620105613000028C4DA114A1149D21A7C
:100E7000083A5002400D014399800F4952080A4335
:100E8000DA8085E7240100D000ED00E0CD010010FC
:100E90000C11002000E100E080E100E080E200E0D1
:100EA000C12D002001BDFFFFAAAA000001BD000066
:100EB0004611002000F0FFFF00F8FFFF70B5EFF3D0
:100EC000058101240443EFF3108C72B6214A1368A4
:100ED000002BFCD0BFF35F8F1F4B05001F4AED1A9C
:100EE0006D416A43120D1E4D8900AE6852B27658AC
:100EF000A6421CD00621595691421CD012215956A7
:100F0000914222D01E215956914220D02A21595671
:100F10000324914210D0134B19781A708171BFF3DA
:100F20005F8F00220B4B1A608CF3108870BDAB688A
:100F30000D4C5C50EFE700246100091989005B1833
:100F4000FF21997109499980E5E70124F4E702241A
:100F5000F2E7C046240100D00C110020AAAA00002C
:100F600000ED00E0C12D0020CD01001001BDFFFF0C
:100F7000054B064A1360064A136053609360D360C2
:100F800013615361936170478080808000E400E0CA
:100F900004E400E010B5084B084C82B00100009357
:100FA000002205232000FFF7C5FC002801DB1F23DA
:100FB000181A02B010BDC046B0E20010C62D0020C5
:100FC00070B504000E001500FFF710FD01002000B1
:100FD00000F006F8A680E580BFF35F8F70BDC046C5
:100FE000024B9C4661448900016070474000003418
:100FF00010B50400FFF7FAFC01002000FFF7F0FF36
:10100000FF232371BFF35F8F10BDC04610B50400EE
:10101000FFF7ECFC01002000FFF7E2FFFF23A380B5
:10102000BFF35F8F10BDC04610B504000120FFF76D
:10103000E9FC034BC3189B002360BFF35F8F10BD17
:1010400040000034034B9C46614489000160BFF3BB
:101050005F8F70474000003483680B4810B58446AA
:10106000614462441201090159189B185C684A687E
:101070000120944201D802D00020C0B210BD1A68ED
:101080000B689A42F9D8F7E7FFFFFF0F0A4B196880
:10109000EFF3108072B60A68002AFCD0BFF35F8FAE
:1010A0001B68BFF35F8F00221A6080F3108840BF77
:1010B000002000217047C0467C2D0020F8B557461F
:1010C00045464E46DE46E0B598460CAB1C780DAB67
:1010D0001B78070091469A460568002C59D1AC7BD5
:1010E000002C3BD0660029683619033E89194B78DD
:1010F000AB73002B00D1EB7300238B704B700B7024
:101100002D4BE218BB6812019B184A461A604246F2
:101110005A600A9A9A600B9ADA6000238B704B70BF
:101120000B706B7B9B46002B26D022006B685946C8
:10113000A86898475B465B005B442A68033B00282D
:1011400012D058469619B070D118D35C002B00D03D
:1011500073705B460C706B735C450ED0F0BCBB4685
:10116000B246A946A046F8BDD3189C709119925D6D
:10117000002A1CD15B460B706C734A464346387D8F
:1011800000F0ECFB051E0AD10E9B002BE6D01D7073
:10119000E4E7660029683619033E8919B0E753462B
:1011A000002BF1D12100386800F0F0FDECE75A7017
:1011B0005B460B706C73E0E7FFFFFF0FF0B5DE4698
:1011C00057464E4645460023E0B58BB00893684B22
:1011D0008200D45800239B46099000F02BFB0200AC
:1011E0000B006068EFF3108A72B65646016800295A
:1011F000FCD0B246BFF35F8F21684F7B8C46002F37
:101200002ED0A5685B49A946791809018944494649
:101210000868496805000E00AD1A9E41002E5FDD8A
:1012200002000B00099800F099FB00230022994668
:10123000002306920793002398466368BFF35F8FED
:101240005A461A608AF310884346002B12D10028B0
:10125000C3D10BB0F0BCBB46B246A946A046F0BD18
:1012600000230022994600230692079300230020C2
:101270009846E2E7089B494618023843C04762682F
:1012800005000E00EFF3108A72B61368002BFCD035
:10129000BFF35F8F002E41DB2B00334302D0236965
:1012A000002B56D12368D97B002905D01A68480045
:1012B00041185218033A57709A7B002A00D19F7345
:1012C000DF73E268013FD35D0133D3555B46236191
:1012D0006368BFF35F8F5A461A608AF310887CE711
:1012E000002E02D1002D00D09AE70021604600F0C8
:1012F000CBFC4B461A685B68069207934B469B688B
:1013000098464B46DB689946E368DB19013B1B783E
:1013100008931B020343236100208EE72369002BFF
:10132000C0D0069A079B8021521BB34109068B420D
:1013300002D30122104B524200210491013103914A
:10134000494601914146200002970091FFF7B6FE01
:10135000BCE700F06FFA2A00330012184B418021DD
:1013600009068B42E8D30122034B5242E4E7C04610
:10137000602D0020FFFFFF0FFFFFFF7F10B5144C13
:101380006368002B04D00A211248FFF729FE10BD24
:101390002300114A1021206800F092FB032000F086
:1013A0003DFA032000F042FB03200C4900F090FAC4
:1013B000FFF71CFB0A4B9C4603232375D0231B0617
:1013C0001B6860446375074B80006060DC60DAE78F
:1013D000541100207C2D002059100010BD11001068
:1013E00040000034602D0020004870475411002058
:1013F000F0B557464E464546DE46E0B585B001930A
:1014000010AB1B780600039300239A46984600927F
:101410007268EFF3108B72B61368002BFCD0BFF329
:101420005F8F3568AC7B002C00D16EE067002B68C5
:101430003F19033FDB195A78AA73002A00D1EA73D7
:10144000484AA118B2680901521800980199106021
:1014500051600E9991600F99D16042469A705A700E
:101460001A706B7B9946002B00D16BE022006B68F1
:101470004946A86898474B465B004B442A68033BA3
:10148000002856D04846D719B870D118D35C002B25
:1014900000D07B704B460C706B734C4553D0F36897
:1014A0001B19013B18787368BFF35F8F42461A60BF
:1014B0008BF310885346002B08D10002204305B05F
:1014C000F0BCBB46B246A946A046F0BD039B002B2C
:1014D00046D00E9B00200F99984703000B433FD046
:1014E00004000D1E1ADA009A019B121BAB410092F8
:1014F000019380221206934204D301231A4C5B42CB
:1015000000930194039B9A4682E77368BFF35F8F51
:101510001C608BF3108801204042D0E700F08AF96C
:101520008022001969411206009001919142E9D38D
:10153000E3E7D3189C70D119D25D002A00D05A700D
:101540004B460B706C73307D009A019B00F006FADD
:1015500082460028A3D02100306800F017FC9EE7E7
:101560000020ACE7FFFFFF0FFFFFFF7F407D7047CC
:10157000F0B504000D0006267642F717C646361968
:101580006F4100B584B08F4214D811D000F052F9E9
:1015900032003B00121A8B41002B15DC002B3ED091
:1015A0002000290000F084F904B080BCB846F0BDEA
:1015B0008642EBD90026002700F03CF932003B00C0
:1015C000121A8B41002BE9DD002302930193154B86
:1015D0003200009314483B00FFF70AFF0028DFDBCE
:1015E00000239846BC46114A114F7B6A9C4504D89B
:1015F000B96A8E42D4D99C45D2D11168EFF31080DC
:1016000072B60B68002BFCD0BFF35F8F1368BFF37B
:101610005F8F4146196080F3108820BFE5E7002AFC
:10162000BED0D1E78D100010541100207C2D002079
:101630000040054070B504000D0000F0FBF8802369
:10164000001969411B06994202D301200249404218
:10165000FFF78EFF70BDC046FFFFFF7F70B506002D
:1016600000F0E8F8FA2204000D0000233000002109
:10167000920001F0A9FD8023001969411B069942DF
:1016800002D3012002494042FFF772FF70BDC046FD
:10169000FFFFFF7FF0B5EFF30583CE46474680B5E9
:1016A00005000C0085B0002B12D02A4A0020536A96
:1016B000A34203D3926A0130AA4204D305B0C0BC4E
:1016C000B946B046F0BD1B1B5A1E9341D8B2F5E790
:1016D000214E02930193214B0200009330000B0036
:1016E000FFF786FE031EE0DD20BF7168EFF3108771
:1016F00072B60A68002AFCD0BFF35F8FDAB2944654
:10170000FF2230681A40417B61450FD0016889464D
:10171000510088464946904441440339897800295C
:1017200004D13269934209D1316107E0F1681B0AA3
:101730008A18013A1278DBB29A4207D07368BFF375
:101740005F8F00221A6087F31088AEE7614600F0D1
:101750001DFBF3E700400540541100208D100010E0
:10176000F0B5EFF30582D6464F4646461000C0B5A9
:101770001038EFF3108872B6214C2368002BFCD090
:10178000BFF35F8F0123190081401E4D1F00696365
:10179000AA461D4D29601D4D2E78AC463500C5402A
:1017A0002F402B4215D053465F6A194B8500EB58EA
:1017B0009F4218D36246174B8E43EB581670BFF307
:1017C0005F8F0022226088F31088002B06D0984794
:1017D00004E0BFF35F8F276088F31088E0BCBA464F
:1017E000B146A846F0BD0C4B92009C46624413687B
:1017F0001360BFF35F8F0023236088F31088EDE749
:10180000280100D0004005403C700540C52D002057
:101810008C2D002094270020D03F054010B5034BAD
:1018200001001800024AFFF763F810BDBE2D00202A
:10183000CCE20010034B596A0A00986A596A8A423E
:10184000FAD170470040054070B504000D00174AFA
:10185000536A1900966A536A8B42FAD13000190014
:1018600024184D41AB4216D813D0104B2A005B6AA6
:101870009D4203D90D494B6A9342FCD3934207D151
:101880000A4A02E0516A994202D1916AA142F9D30F
:1018900070BDA642E9D9054B5B6A1C005A1CEFD00B
:1018A000012201246442E5175242E3E7004005406B
:1018B000064A536A9942FCD807D1044B02E05A6A9F
:1018C000914202D19A6A8242F9D3704700400540A2
:1018D00070B504000D00EFF3108672B61A4A136853
:1018E000002BFCD0BFF35F8F002D1BD02000FFF733
:1018F000D7F8164981420AD02000FFF7D9F8012114
:101900002000FFF791F80123A340114A1360114B07
:10191000A400E550BFF35F8F00220B4B1A6086F3E3
:10192000108870BD0121A1400A4BA200D5500A4B7E
:1019300020001A788A4305491A70FFF7DDF9002163
:101940002000FFF771F8E5E7280100D061170010CB
:101950003860054094270020C52D0020F0B54F4683
:10196000D6464646C0B507002B4C616A0D00A66AF4
:10197000616AA942FAD18B4208D805D00120E0BCA7
:10198000BA46B146A846F0BDB242F7D9EFF3108A85
:1019900072B6224801680029FCD0BFF35F8F012591
:1019A000BD401F491C4C8846097889462943C9B265
:1019B0008C46414660460870391D890065630A51AE
:1019C0001849B8004350216A0020294219D0616AA1
:1019D0000800A66A616A8142FAD18B4219D801D106
:1019E000B24216D8CC450BD00B4B1F221D625D6353
:1019F00001233A4093400C4A136043464A461A700A
:101A00000120BFF35F8F0022044B1A608AF3108815
:101A1000B5E70020F5E7C04600400540280100D0AA
:101A2000C52D00208C2D002080E200E0EFF3108C0B
:101A300072B60A490B68002BFCD0BFF35F8F0123FD
:101A40008340074A0748136202789A430270BFF343
:101A50005F8F00230B608CF310887047280100D043
:101A600000400540C52D002070B506000D00140093
:101A700000291DD0002A12D0736880689847620040
:101A80006B0012195B193168033A033B002808D038
:101A90008A189570C818CB5C002B0BD104702800F5
:101AA00070BDCB189C7088188A5C002A05D105701F
:101AB0002000F5E753700470F1E75A700570F7E7FE
:101AC00010B583600023CCB24373013342600473CA
:101AD0008373C4730068421C012C05D90133DBB247
:101AE000137003329C42F9D1FF230B405A00D318E4
:101AF000C01800230338437010BDC04670B5050000
:101B00000C1E07D0630001681B19033BCB185A78E1
:101B1000002A01D1200070BD500080180338091838
:101B200000204E784870210058702800FFF79CFF75
:101B3000310004002800FFF7E1FF0600002C20D050
:101B40000028E7D0320021006B68A868984772002F
:101B5000630092191B192968033A033B002808D037
:101B60008A189470C818CB5C002B00D05370067094
:101B7000D0E7CB189E7088188A5C002A00D05A7073
:101B800004703400C6E7C046F0B557464546DE4609
:101B90004E46E0B50D006F0001687F19033F040059
:101BA000C85D83B00192CA19002850D043001B18A9
:101BB000033BCB185E78B446002E1AD1019E002E4E
:101BC00042D0E67B002E04D073009B19CB18033B58
:101BD0005D70A37B002B00D1A573E57300282FD186
:101BE0000023537003B0F0BCBB46B246A946A046E2
:101BF000F0BD72006244033A8A1851788846002189
:101C0000517089465970320001002000FFF72CFF07
:101C100043468246002B07D05B0021684344033BC8
:101C2000CB185A78002A16D1424651462000FFF7B9
:101C30001BFF2168019BCA19002BC2D10028CFD0FD
:101C400043001B18033BCB1800219970C8E7019B88
:101C5000002BB6D1C4E75000801803380918487823
:101C6000834648464870587041462000FFF7FCFE06
:101C7000594680462000FFF741FF41460200200000
:101C8000FFF7F2FE8046CFE7F0B557464546DE4601
:101C90004E46E0B583B00191457B04006F000068BB
:101CA0007F19033FC15DC219002952D04B005B1858
:101CB000033BC3185E78B446002E1CD1019E002E53
:101CC00044D0E67B002E04D073009B19C318033B5D
:101CD0005D70A37B002B00D1A573E573002931D182
:101CE000002328005370617303B0F0BCBB46B246BA
:101CF000A946A046F0BD72006244033A82185078AB
:101D00008046002050708146587032002000FFF756
:101D1000ABFE43468246002B07D05B00216843445C
:101D2000033BCB185A78002A17D14246514620006F
:101D3000FFF79AFE019B01002068C219002BC0D159
:101D40000029CDD04B005B18033BC31800209870CE
:101D5000C6E7019B002BB4D1C2E7500080180338BE
:101D60000918487883464846487058704146200014
:101D7000FFF77AFE594680462000FFF7BFFE414636
:101D800002002000FFF770FE8046CEE770B5050028
:101D900000292CD0437B8B422ED04C000068641865
:101DA000033C0419A278002A21D053009B18033B5E
:101DB000C25CC6188A4202D11BE0002A08D0530038
:101DC0009B18033BC3185A788A42F6D162785A703E
:101DD000002301222800A3706370FFF7D5FE697B02
:101DE00002002800FFF740FE6873012000E0002099
:101DF00070BD63783370EBE701221900FFF7C4FE72
:101E0000F2E7C046F8B5CE464746040080B5062046
:101E10000D0000F021FA061E53D0534B5349E3182E
:101E20005A1E93418022120494465B429B0D504AF5
:101E30009B05634413604F4A136018008A689043FF
:101E4000FBD1494B4C4AE31859424B4180215B007E
:101E500049000620995200F0FFF92900C00000F067
:101E6000F5FBC30932D14022012190466162A36291
:101E7000266BF30736D427008025E36A00232C372E
:101E80006D013D432B600620266300F0E5F94146D5
:101E9000800000F0DBFB236B06009846DB073BD499
:101EA0006023E26A5A400E3313402B60434623639B
:101EB000802310229B013B431A60304B2363032392
:101EC000A3643000C0BCB946B046F8BD2C4A93426A
:101ED0003FD900232B492C4A6162A362266B9046AE
:101EE000F307C8D52200C02330329B011343234A95
:101EF00006201A60656AA36AAD01ED1800F0ACF91E
:101F0000224900F0A3FBAD020100280000F09EFB77
:101F10000021FFF799FCAEE72200C02330329B017D
:101F20001343164A06201A60636AA26A9B01994607
:101F3000914400F091F94B4614499B02994600F0F8
:101F400085FB0100484600F081FB0021FFF77CFC87
:101F5000A6E77F2299018846024001325208190003
:101F60009044130082E7C0460080FCBF00C00040E0
:101F700000E0004000F000409C2D00200103000024
:101F8000FEFF0000FFFF0000C0FF3F004E0E0000FC
:101F900010B50C2082B000F0B7F9FEF7A1FC0028C4
:101FA00010D08B4B8B488B498B4A186059609860D6
:101FB000D960186159619861D961186259625A6291
:101FC00002B010BD854CA06700F0F4F90122844BEB
:101FD0001A60636C012BFCD10322824B1A607F4A8A
:101FE000936B012BFCD1013301217F4A7F48009381
:101FF000043300F037F905237D4A009301217D4821
:1020000000F030F97C4B5A68FF2A02D88022520037
:102010005A608022734B6E4C12011A6021690029AC
:1020200007D0606900F012FB013043001B18033B2E
:10203000FDD2E022704B714819680A40026002220A
:102040001968514001320A40042102609A68114225
:10205000FCD080216A4A09011160802252005A6036
:10206000684B2361684B5968FF2900D85A600322E6
:1020700001215B4B1A60644A93681942FCD0E0234B
:102080001068034061480360126803234A4002213C
:1020900013405D4A036093681942FCD080215C4B79
:1020A0000901196080215B4B4900516063615A4B03
:1020B0005A68FF2A00D859608022584B12011A60D2
:1020C000E169002907D0606900F0C0FA01304300DF
:1020D0001B18033BFDD2E0234F4A11680B405049C7
:1020E0000B6080214F4B090119608021394B490059
:1020F0005160E3614C4B5A68FF2A00D85960802236
:102100004A4B12011A60216A002907D0606900F069
:102110009DFA013043001B18033BFDD2E023424AE5
:1021200011680B4042490B608021424B0901196044
:1021300080235B0053608022264BD20223623E4BF9
:102140005968914200D25A6080223C4B12011A60B9
:10215000616A002907D0606900F078FA0130430015
:102160001B18033BFDD2E023334A11680B4034496E
:102170000B608021334B090119608023DB0253601F
:10218000154B6362304B5A68FF2A02D880225200F6
:102190005A6080222D4B12011A60A169002907D0D4
:1021A000606900F053FA013043001B18033BFDD275
:1021B000E023254A11680B4025490B608021254BFF
:1021C0000901196080235B005360124BA361F7E69D
:1021D000281D0020006CDC021BB7000000800040BE
:1021E0003CB0004030B00040002F685900800240F1
:1021F000008C864700C00240308000403090004094
:1022000030A00040001BB7003C8000403C900040E4
:102210003CA00040405973075480004054B0004037
:102220005490004054A000406080004060B00040E6
:102230006090004060A000406C8000406CB00040A6
:102240006C9000406CA000404880004048B00040C6
:102250004890004048A00040014B8000C0587047A3
:10226000281D0020F8B5040022481E0017000D00AC
:1022700000F0ECF90100380000F0E8F9069B3604A4
:102280001B031E432368002B22DB1B4B1B49E31857
:102290005A1E93418022920194465B421B0B184ABE
:1022A0001B0363441360174A13601F008A68974337
:1022B000FBD1C022231D92011A4321232560A06077
:1022C00013602368002BFCDA0823E6601360F8BD76
:1022D0003F2322681340AB42D7D1A3681B051B0DD7
:1022E0008342D2D1EE22E368D2021340B342CCD172
:1022F000EDE7C046001BB7000040FDBF00C0004036
:1023000000E0004000F000408023024A9B000343AD
:10231000D36270470080054010B580241C4BE40553
:102320001C6000281AD001231A4C18431A4BDC6198
:102330001A4C44401C62596298628021144BC905B2
:102340001960174817490860E021C9041960002A7C
:1023500007D18022144B12061A6010BD0E4BD861B3
:10236000EBE753019B1A9B009A18802312015B0430
:102370009A4209D213000D490B60074B5A60802224
:10238000094BD2051A60E8E7094B1A00F3E7C0468B
:1023900000B00540D3C007B0008005402D3FF84F86
:1023A000FCFF01000820014000A00540382D00205E
:1023B000FFFFFF00AA23064A1B0113602F230549D4
:1023C000D360054B19605368002BFCDA7047C04698
:1023D0000040024000B0FA00006002402C4B2D4A41
:1023E00070B51A602C4A2D4B2D491A6014008B6869
:1023F0009C43FBD12B4D2C4EB54208D2013E761B9F
:10240000B60808CD984723000134B342F9D1FFF74D
:10241000BFFD264A214B1A60214A9368DB43DB014A
:10242000DD09002BF9D14022214B224C224E9A6724
:102430005A671A67DA66B44208D223682000002B74
:1024400020D00834FEF7E2FDB442F6D31B4C1C4EFC
:10245000C022B168200000F0BDFFB460FEF7B8FAFA
:10246000FEF786FDFEF78AFF164C174EB44208D2DF
:10247000013E361BB60808CC98472B0001359E421A
:10248000F9D170BD0834FEF7B3FDB442D5D3DDE712
:1024900000E00040BFCDFBFEFE7F3C0000F00040AE
:1024A00000C00040101D0020201D0020FFFFFF0184
:1024B00000F00140F01C0020101D00200000002052
:1024C00000ED00E0201D0020281D002000BEFDE7DB
:1024D000094A03001068002805D00849C3188B4238
:1024E00007D81360704706480449C31810608B4230
:1024F000F7D901204042F5E73029002000000420F0
:10250000C82D002010B5FFF7E1FFC0460FB400B59D
:10251000084883B000F0FAFF049B002B07D005A900
:102520001800019100F018F8034800F0EFFF0120B7
:10253000FFF7CCFFF0E200104CE2001010B50148AC
:10254000FFF7E4FF00E3001010B5002800D110BD34
:1025500000F090FFFBE7C04610B5094A030014687D
:1025600084B0002C08D0012200910648524203A9F1
:10257000A047012004B010BD00F0C8FF0020F9E71B
:10258000342D00204925001001480421014B184733
:1025900080110020B9250010142310B501001888FF
:1025A00004331B88984710BD162310B50100188806
:1025B00002331B88984710BDF8B54746CE4680B514
:1025C0000F1E19D014239946043304000025012658
:1025D00098464B461888434621681B88984701C493
:1025E000431E9841013540420640AF42F1D13000D0
:1025F000C0BCB946B046F8BD0126F8E7124A936F51
:102600009B0815D29066D166002905D0FFE7FFE749
:10261000FFE7516F106F704704B580210906C2179C
:102620005140002800D0C8430BF08EFD002104BDAE
:10263000F0B5146E556E576F166FFFF7E3FF146613
:10264000556657671667F0BD000000D0114A936FBA
:102650009B0813D210665166002905D0FFE7FFE7FB
:10266000FFE7516F106F704704B5002801D00020BC
:10267000C0430BF069FD002104BDC046F0B5146EE7
:10268000556E576F166FFFF7E5FF1466556657676F
:102690001667F0BD000000D094464A4A926F920837
:1026A000624601D228E0C046F0B5464E346E756EE3
:1026B000776F366F00F020F89446424A14665566EC
:1026C000576716676246F0BD94463E4A926F92087D
:1026D000624601D254E0C046F0B53A4E346E756E93
:1026E000776F366F00F04CF89446364A146655669C
:1026F000576716676246F0BD002B24DB11D0002916
:102700003EDA00B5C943404200D1013100F038F84B
:10271000C943404200D10131DB43524200D1013371
:1027200000BD002AEBD1002801D1002905D00020EE
:10273000C90FC90701D1C043410800B50BF0F4FC33
:102740000022002300BD00B500290ADBDB43524212
:1027500000D1013300F014F8C943404200D10131E7
:1027600000BDC943404200D10131DB43524200D198
:10277000013300F005F8DB43524200D1013300BDC4
:10278000002923D1002B18D1002A0CD0BC460D4FB4
:1027900038667A6600210023FFE7FFE7FFE77A6FDC
:1027A000386F67467047002801D00748010000B520
:1027B0000BF0BAFC0022002300BD02000B00002039
:1027C00000217047000000D0FFFFFFFF002B00D06A
:1027D000BFE0130C28D1002AE7D080B4114F39662E
:1027E0007A66FFE7FFE730B4040C7B6F396F1B0498
:1027F00023433B667A66FFE7FFE7FFE7C04684B204
:102800007B6F3D6F1B0423433B667A66FFE7FFE760
:10281000C04600232C042D0C7A6F386F00196941D3
:10282000B0BC7047000000D0F0B594460025140EEF
:1028300001D112020835140F01D112010435940F91
:1028400001D192000235D40F01D152000135D40BD1
:102850000134254F7C66254C3C660E0C93B2FFE795
:10286000FFE7FFE73C6F6643360C7703BE467343D2
:10287000DF0B5B04C01AB941130C7343DB18C91A90
:10288000CE086643360CB64493B273431F0F1B0148
:10289000C01AB941130C73431F0B1B05C01AB94171
:1028A000860D8F023E436643360C092D24DB520A07
:1028B0007243801A7703460A6643360C16235B1B65
:1028C000DE40DF40BF1964466643821B7046043514
:1028D00006330100D940A840C01900D30131A242FB
:1028E00006D20023F0BD0000000000D0FFFFFFFF74
:1028F000121B0130F3D3F1E709277F1BFE4064462A
:10290000A2B27243801A00D20139220C7243130C16
:102910001204821A99410B007046043513370100E6
:10292000F940A840801900D30131002B02D1A24206
:102930000AD2F0BD013000D30131121BFAD2013BA3
:10294000F8D1A24200D2F0BD013000D30131121BF8
:10295000F7E7F0B51C0C00D080E00CB400251C0A91
:1029600004D11B02160E3343120208351C0B04D18E
:102970001B01160F3343120104359C0B04D19B003D
:10298000960F334392000235DC0B02D192185B4163
:1029900001351C00971864410134464F7C66464C53
:1029A0003C660E0CFFE7FFE7FFE7C0463C6F66435F
:1029B000360C7703BE4697B27743C01B00D201396D
:1029C000C01B00D201399FB27743C91BC91B170C2A
:1029D00077437E04FF0B801BB941CE086643360C5B
:1029E0000C2D33DBB644120B1F053A431B0B97B279
:1029F0007743C01B00D201399FB27743C91B170C24
:102A000077433E043F0C801BB941860D8F023E4345
:102A1000664329277F1BFE400C3D7746AF40BF1918
:102A200030BCA2B2ABB272437343801A9941220CFC
:102A30007243130C1204801A994102000B000137F3
:102A4000001BA941F9D2781E0021F0BD0C277F1B85
:102A5000FE4077467F0BAF40FF19E0E700245D1C86
:102A600007D0144F7D663966FFE7FFE7FFE7FFE712
:102A70003C6F95B29EB265436643401BB141150C55
:102A80001E0C6543664336042F0C3E432D04401B49
:102A9000B141994204D202000B0020000021F0BD98
:102AA00001D19042F7D3801A994101349942F2D36F
:102AB000F6E70000000000D0FFFFFFFF4840414064
:102AC000484018B41B4B5B68FC46019308BD04DF0B
:102AD000572D001018B4174B1B68FC46019308BD16
:102AE00000DF612D00109446134A926F920809D2BC
:102AF000624618B40F4BDB68FC46019308BD0CDF3F
:102B0000193000100C4AF0B5146E556E576F166FE1
:102B10006246FFF7EEFF084A146655665767166768
:102B2000F0BD18B4034B9B68FC46019308BD08DF59
:102B3000BD2E0010D81E0020000000D0FFB5504070
:102B40004240504059404B40594000E0FFB5154FBE
:102B50004C00640D03D0BC4204D10C0314D80020F7
:102B6000090D09055C00640D03D0BC4204D11C03AF
:102B70000AD800221B0D1B0501264B4009D44B40EF
:102B800003D58B4200D18242FFBD9942FCD19042D5
:102B9000FFBD0B43DB1803431343F5D0C94349186A
:102BA000FFBD0000FF07000000B5FFF7CFFF01D019
:102BB000002000BD012000BD00B5FFF7C7FF804128
:102BC00000BDC04600B5FFF7C1FF01D9002000BD20
:102BD000012000BD00B5FFF7B1FF01D9002000BD05
:102BE000012000BD00B5FFF7A9FF804100BD012015
:102BF00040054A00121804D85A00121801D80020C3
:102C00007047012070470020704700000021002815
:102C100005D17047C1174840401AFAD0C90713B50B
:102C2000064B1B6898470CBC441CA2401005120BB5
:102C30000349091B09051943114310BD782D0020D4
:102C40001F04000010B54C00620D8023D218DB0079
:102C5000D21A5B057E2A10DD9E3A13DACC170903DF
:102C6000490819435242D140640001341532202AE8
:102C700005DAD0400843604310BD002010BD08466F
:102C8000604310BDC80FC018013810BD132370B5C4
:102C90001D78012D15D010DD1D48FFF785FC1D4C5A
:102CA00001008022200000F095FB022D2DD01A4853
:102CB000FFF772FC194B186070BD194B154CA364DB
:102CC000F5E7174B134C23606360A360E360236157
:102CD0006361A361E36123626362A362E3622363CE
:102CE0006363A363E36323646364A364E3642365AE
:102CF0006365A365E36523666366A366E36623678E
:102D00006367A367E367A364D1E7054BA364CEE7DA
:102D100053440000D81E00204C330000782D0020C2
:102D2000252D001007B5604601880A0A0230DF2A07
:102D3000FAD1C9B2820804D3028840880004104343
:102D400000E00068014A5050039007BDD81E0020E3
:102D50000FB403BC0CBCF0B50124E407634000E0F1
:102D6000F0B50C0DCF0F661E3605891B640503D325
:102D7000C943404200D30131640D03D0661CF60AFA
:102D800007D0E41B00207F00791C89078912803C52
:102D900024031D0DDF0F6E1E36059B1B6D0503D32F
:102DA000DB43524200D301336D0D03D06E1CF60A93
:102DB00007D0ED1B00227F007B1C9B079B12803DF0
:102DC0002D032F1B661B58D4A446202E46DA20372D
:102DD0001400BC401D00BD40F24033412A4380181E
:102DE0005941CB0F05D0C943C04300226442504132
:102DF000514162464D0D28D10D0D07D100281FD03D
:102E0000241940414941013A0D0DF9D0640006D31F
:102E1000013000D30131002C01D140084000013ABB
:102E20000BD4941CE40A04D112051144DB071944A5
:102E3000F0BDD907204B194300E0D9070020F0BDB1
:102E40000029DDD1002CDBD1F0BD0132C6074008DE
:102E5000CD0728434908002EE1D0D9E73C2E29DAD6
:102E6000203E40371400BC4000D00124F2401443FF
:102E70001A00BB401C43D317ACE7AC46202F08DA3E
:102E800020360400B4400D00B540F84039412843D5
:102E9000A5E73C2F0CDA203F40360400B44000D0B8
:102EA0000124F84004430800B1400C43C117EAE78D
:102EB00010001900002494E70000F07FF0B50C0D1D
:102EC000661E3605891BE60A6405640D02D0651C82
:102ED000ED0A04D0002001210905803C2403A4460A
:102EE0001C0D671E3F05DB1BE70A6405640D02D05D
:102EF000651CED0A04D0002201231B05803C24033D
:102F00007740644497B484B296B27443070C7E430E
:102F1000150C6F4380B26843361802D301200004B9
:102F20003F183004350C00197D41844688B29AB2AE
:102F300050430C0C62431F0C7C438EB27E439219AB
:102F400002D301263604A4191604170C361867415B
:102F500001BC81B29AB25143040C62431B0C5C4326
:102F600080B25843121802D3012000042418100420
:102F7000130C401863412D185E410020474106BCE8
:102F800088B293B258430C0C6343120C544389B279
:102F900051435B1802D301210904641819041A0C67
:102FA000091862416D1856410020474118BCF902CA
:102FB000720D1143F0026A0D1043ED020A0D03D1A8
:102FC0006D1940414941013B124E9B1B7600B342B3
:102FD0000ED26D0007D3013000267141664635439D
:102FE00001D1400840001B05C918E4072144F0BD89
:102FF0000BDA013306D1013004D101314F0D01D07C
:103000004908F2E7E1070020F0BD01363105002054
:10301000EBE70000FF030000F0B51C0D671E3F0545
:10302000DB1BE70A6405640D02D0661CF60A04D0B7
:10303000002201231B05803C2403D0252D060026F9
:10304000F6432E661E096E66CE0FF619B446490089
:103050004F0D02D07E1CF60A03D000200021403F15
:103060003F033E1BB600B444013F7F05C91B49081E
:103070002E6F013676089C02950D25437543ED139E
:103080007543AD1301356D10F603761B0CB4CC02FD
:10309000450D2C43A2B2B3B25A43270C7B43350CE7
:1030A0006F43A4B26C431B1902D3012424043F19BB
:1030B0001C041D0CA4187D4124196D41009A91B285
:1030C000ACB26143170C7C432B0C5F4392B25A4362
:1030D000A41802D301221204BF182204230C521890
:1030E0007B41019C6C431B19520ED9010A434401D8
:1030F000A01A81B2B2B2514303145A43360C73433F
:1031000087B27743D617D21900277E4136049B1920
:103110001704160C7F185E417316ED18F301002694
:1031200080337541A90F06D16400690AE8055B0A7E
:10313000184309D22FE00422944480337541A90A30
:10314000A8059B0A184326D3404149412404009A0C
:10315000019B0D005543641B4343E41A95B286B2AC
:103160007543170C7E43030C5F4392B25A43B61863
:1031700002D301221204BF183204330C52197B41CE
:1031800052429C41002C02D400220130514140089F
:10319000CA071043490802B06246D7079210084B8D
:1031A000D218084B9A4203D212058918C919F0BDEA
:1031B0000020002A01DC3900F0BD01331905F5E7D4
:1031C000FD030000FE07000051434343C9188C462D
:1031D000110C83B24B4310B4040C614392B280B221
:1031E000504362431C041B0C001910BC59411304CA
:1031F000120CC018514161447047000048404140E2
:1032000048400E4B5B6818470C4B1B6818470C4A2C
:10321000936F9B0802D2094BDB681847F0B5146E18
:10322000556E576F166FFFF7F6FF054A1466556621
:1032300057671667F0BD014B9B681847D81F0020E1
:10324000000000D0C10FC90700D54042002817D0A8
:10325000F44603B40B4B1B68984706BC81409E386C
:103260004042803107D20B0607D04900490AC00509
:103270001043084360470130F8E7490A8902F5E73F
:1032800070470000782D0020034BDB6FFC46184789
:103290007CDF2D3300100000D81F0020132310B551
:1032A00012481C78FFF780F90100012C0AD003DDD9
:1032B00080220F4800F08EF80E48FFF76DF90E4B94
:1032C000186010BD0A4C5422200000F083F80B4B0C
:1032D0006365A365E36523666366A366E3662367A8
:1032E0006367A367E3672362E361E5E75346000092
:1032F000D81F00204C330000782D0020013300102F
:1033000007B5604601880A0A0230DF2AFAD1C9B23D
:10331000820804D3028840880004104300E000685B
:10332000014A5050039007BDD81F0020C30FDB0790
:1033300041000A0E07D0FF2A08D00909054A89185A
:103340001943400770471900002070470249C91807
:10335000FAE70000000000380000F07F70B50400BC
:103360000A4E30000AF040FF20000AF0A1F90500E3
:1033700030000AF0D1FE002D05D0054B2C199C42DF
:1033800001D8280070BD0348FFF7C0F8F01C0020EA
:10339000000004200CE3001070B50400054D280067
:1033A0000AF022FF20000AF08DF928000AF0B4FE8E
:1033B00070BDC046F01C002001480421014B184795
:1033C00090110020B9250010014B1B681847000020
:1033D00090110020014B5B681847000090110020FD
:1033E000F0B5C64600B5437D07000D001600002B62
:1033F00038D0002A2EDD00216A1E90466A5C037DCB
:103400004C1C00200A2A0CD0A64216D043461B5D55
:1034100021000D3B5A4253416A5CDBB24C1C0A2A24
:10342000F2D1002BF0D1884217DB022110483B6813
:103430009847A64207D02000E8E7864203DD311A0C
:103440003B6828189847AD19013D2B780D3B5A422F
:1034500053413B7580BCB846F0BD091A3B6828183B
:103460009847E2E70368110028009847F2E7C04652
:10347000C4E40010F0B5CE46474680B583B06B4635
:103480000600DD1D2870FEF7D5F900231A4A121830
:103490004B41802109068B4202D30122174B524235
:1034A0001749080088460AF077FE164B81461C68CB
:1034B000002C14D0144F02E02469002C0FD0236894
:1034C000002BF9D03B68002B01D0A342F4D120009F
:1034D00001222900FFF784FF2469002CEFD14B461D
:1034E000002B05D1300003B0C0BCB946B046F0BDDA
:1034F00040460AF011FEF5E740420F00FFFFFF7F54
:10350000F81C0020202900202C290020F0B5DE46E0
:1035100057464E464546E0B585B007000AF07EFCAA
:103520000600FEF787F900232B4A12184B41802131
:1035300009068B4202D30122284B52422849080037
:103540008B460AF029FE274B01901C689A46002CF6
:103550003BD0254B984602ABDD1D0A23994602E07D
:103560002469002C17D02368002BF9D043461B6830
:10357000002B01D09C42F3D1200032003900FFF72C
:103580002FFF4B462000012229002B70FFF728FF58
:103590002469002CE7D1019B002B18D153461C68ED
:1035A000002C06D06368002B0BD098472469002CB0
:1035B000F8D1300005B0F0BCBB46B246A946A046E3
:1035C000F0BD2469002CEDD1F3E70028F1D0584676
:1035D0000AF0A2FDE2E7C04640420F00FFFFFF7F76
:1035E000F81C0020202900202C2900200A4A1368FA
:1035F000002B05D10CE01A001B691032002B07D0FC
:103600009842F8D1002902D1036913600161704723
:103610000029FCD01060FAE72029002010B500F046
:10362000CDF800F0C7FA012010BDC046F0B5002962
:1036300015DD0E4B0D271A680D4B0E4CD3185D424D
:103640006B41451820215B001E5F0478A64207D01D
:1036500093691942FCD101301460A842F5D1F0BD44
:1036600093691942FCD11760F2E7C046A02D0020F3
:103670000080FCBF9C2D0020214B70B504000D1E66
:103680001E682CDD002010211E4B013C1A68936936
:10369000194215D1013093691942FCD113682354A2
:1036A0008542F4D1002E09D0502338219363536B07
:1036B0003432194080235B011343196028000DE068
:1036C000002E09D0502338219363536B34321940B4
:1036D00080235B011A43116000280ED070BD002EBC
:1036E0000BD050223821074B1B689A635A6B343336
:1036F0001140802252011343196003204042EDE73C
:10370000A4280020A02D0020064B10B51B68002B1C
:1037100006D00021044A12689163044A1068984751
:1037200010BDC046A4280020A02D0020AC280020F9
:103730001D4BF0B51A68C64698461C4B0E00D318B0
:1037400059424B411A4F14331C00050000B53B6829
:10375000002807D0002B11D0164B3D601E6080BCA6
:10376000B846F0BD002BF7D0906300212000FDF794
:103770005BF920001049FDF7BFFAEDE720000E4984
:10378000FDF796F901212000FDF74EF9434650223E
:1037900038211B689A635A6B3433114080225201DE
:1037A00013431960D8E7C046A02D00200080FCBF5D
:1037B000A4280020AC280020093700100C4B10B5BD
:1037C0001B780C4B0C4C1B780C4B02210020236007
:1037D000FDF71AF802210120FDF716F8E121206813
:1037E0004902FEF70FFB01210548FFF7FFFE10BD60
:1037F000BCEE0010B8EE0010A02D002000400340E9
:10380000A01100207047C0460022014B1A7070477B
:10381000C22D00204B790020FF2B0BD18B79002B80
:1038200008D1CB79012B05D1082A03D9024B8A781C
:1038300009301A707047C046C22D00200120704721
:1038400070B5012901D0012070BD13495379107959
:1038500009781B02034300209942F5D15378012BCC
:1038600008D0022BF0D1002064220021FEF754FD85
:103870000120E9E79478D278050012021443D205BA
:1038800002D5620A93401D000448FEF785FE7F21A1
:103890000300214028009847C22D00205542000017
:1038A0000123037000487047DCE400104B780A786D
:1038B0001B0213438A7810B512041A43CB781B06F7
:1038C00013439622D200934200D010BD0348FEF766
:1038D00063FE0021030008009847C04655420000DF
:1038E000024B1860024B19607047C046A8280020A0
:1038F000B028002010B5024B1878FDF7B3F810BDC2
:10390000C32D0020114B70B51A68002A1AD0EFF3AE
:10391000108172B610680028FCD0BFF35F8F0020C2
:103920000B4A596010701B68BFF35F8F186081F3FA
:10393000108800240025074B1878FDF793F829001C
:10394000200070BDFA240025A400F4E7582D0020C3
:10395000C42D0020C32D002070B5040000200E00EF
:1039600001F0E8FA002836D0002001F0FBFA002828
:1039700031D0FDF75FFF0023184A12184B41802118
:1039800009068B4216D2164D28000AF005FC0028C5
:1039900021D0002001F0CEFA00280FD10120002113
:1039A000404200F0C1FC0324644228000AF0B4FB4A
:1039B000200070BD01220B4B5242E4E7002001F0D1
:1039C000D1FA0028EAD021003200002001F0D6FA16
:1039D000041EEAD1E7E703246442E9E740420F000E
:1039E000842D0020FFFFFF7FF8B5DE46574680B5E7
:1039F00005000C00FDF71EFF0023374A12184B414B
:103A0000802109068B4202D30122344B52423449B1
:103A100008008A460AF0C0FB002803D1C0BCBB46A0
:103A2000B246F8BD002001F085FA00284AD00026F1
:103A3000002C43DD2B4B9B4614E0A919002001F01C
:103A400011FB070001200021404200F06DFC002026
:103A500001F0CCFAFDF7EEFE224BF6191860596022
:103A6000B4422BDD002001F017FBA71B0200B84277
:103A700000DD3A00002AE0D101200021404200F0A0
:103A800053FC002001F0B2FA002001F053FA0028A4
:103A900014D0002001F000FB0028E1D1FDF7CAFEA0
:103AA0005B460F001A685B68002184460E481218B6
:103AB0004B419F4202D8D3D19445D1D950460AF008
:103AC0002BFBABE700200021064B186059605046E5
:103AD0000AF022FBA2E7C04640420F00FFFFFF7F33
:103AE000842D0020D01E002020A1070010B5244CFA
:103AF00084B0002120000AF02FFB00281CD1214BAC
:103B00001A68002A16D0EFF3108172B610680028E8
:103B1000FCD0BFF35F8F01241B48596002781B68FB
:103B2000D2B20470BFF35F8F0020186081F3108859
:103B3000002A0AD004B010BD01200021404200F04C
:103B4000F3FB20000AF0E8FAF4E7FDF74DFC04006F
:103B5000FDF770FEFA220023920012184B418021DB
:103B600009068B4202D30122084B524201210291E5
:103B700000210191064920000091FDF739FCD9E7A9
:103B8000842D0020582D0020C42D0020FFFFFF7F32
:103B900005390010054B10B51868002804D0044BF7
:103BA0000022196801F036F810BDC046A828002090
:103BB000B0280020D02310B51B0684B01C68FDF788
:103BC00013FCFDF7D3FCA04202D0002004B010BDCE
:103BD000274B1B7801F042FC2648FDF709FA01202B
:103BE000FDF7D8F9FF23244C244920701840FCF736
:103BF0005FFF20780121FCF717FF0520FCF73AFF53
:103C0000002827D1FDF7F0FB0400FDF713FEFA2290
:103C10000023920012184B41802109068B4202D3E7
:103C20000122174B524201210291002101911549B5
:103C300020000091FDF7DCFB08220400002112485F
:103C4000FFF7C2FB002CC0DB10480121FFF7CEFCC0
:103C50000120BBE700220E490520FCF753FFFCF7CB
:103C6000C5FE094B01001800FDF7ECF9ECE7C04672
:103C7000C0EE0010842D0020C32D0020ED3A00106E
:103C8000FFFFFF7F05390010582D0020B8110020DC
:103C9000F5380010004870476CE500100048704788
:103CA00018E5001010B5040017480378002B20D049
:103CB000002C06D1154B16484380063BFF3B038082
:103CC00010BD052C19D8134BA400E058124901234C
:103CD000013804E001330A800231142B0FD0C25C9A
:103CE000002AF7D1C022DBB25B00920008481343E0
:103CF000E5E7112100F01AF8DAE70020E0E7CA232F
:103D000003489B00DBE7C046A42D00200904000007
:103D1000F828002000E50010FA28002010B502481D
:103D200000F0D8F810BDC046702D002030B54B1EF5
:103D3000012900D1A7E0664A11780D092C00303422
:103D40009F2900D9A2E00470012B00D1BEE00F2111
:103D5000147821400C003034092900D998E04470CF
:103D6000022B00D1B2E054782509290030319F2C74
:103D700000D990E08170032B00D1A7E00F212140F2
:103D80000C003034092900D987E0C470042B00D11D
:103D90009CE094782509290030319F2C00D97FE0E0
:103DA0000171052B00D191E00F2121400C0030342E
:103DB000092900D976E04471062B00D186E0D47839
:103DC0002509290030319F2C00D96EE08171072B25
:103DD00000D17BE00F2121400C003034092966D846
:103DE000C471082B00D171E0147925092900303104
:103DF0009F2C5FD80172092B68D00F2121400C0045
:103E00003034092958D844720A2B5FD054792509D7
:103E1000290030319F2C52D881720B2B56D00F21A4
:103E200021400C00303409294BD8C4720C2B4DD0E2
:103E300094792509290030319F2C00D9073101736D
:103E40000D2B43D00F2121400C003034092901D91A
:103E500037310C0044730E2B38D0D1790C09220075
:103E600030329F2900D9073282730F2B2ED00F22B8
:103E70000A4011003731092A01D830321100C173CC
:103E8000102B23D010300023037030BD07345AE7C5
:103E900037310C0063E707316CE737310C0074E70A
:103EA00007317DE737310C0085E707318EE7373181
:103EB0000C0095E707319DE737310C00A3E7073188
:103EC000AAE737310C00C4720C2BB1D1C018DAE765
:103ED000702D002010B588B004000D220021684626
:103EE000FFF772FA0D22002104A8FFF76DFA4B23A9
:103EF0006A466846137004A90D220AF005F91521D7
:103F0000082220006944FFF765FA08B010BDC046DA
:103F100010B501210520FCF787FD10BD10B500226A
:103F20000021024800F058F910BDC0465429002075
:103F30008022024B5202DA647047C04600201150C2
:103F4000F0B5C64600B5060000F020F90C231B4D65
:103F5000FF22AB6705201A49FCF7D4FD40239846A1
:103F6000184C402200212000FFF72EFA434601277B
:103F7000238321210023144A6770A26013606354D5
:103F80005F31618441462187053963540F4A1049E6
:103F90006360E260A1620B606362E2620AF0CCF8E7
:103FA00080239B052F64EB6490230A4A3000EA507B
:103FB000FFF7BEFF80BCB846F0BDC0460000115000
:103FC000F905002034290020840010500001105011
:103FD0008000105010D001000B785B0602D14B78A6
:103FE000052B00D070478A78014B1A60FAE7C0466B
:103FF00000001150F0B5C64600B5CC7888780A7933
:104000004B797F21A40701401B02C50913434F00D0
:10401000A20F1400324E7A195201B218907001208A
:104020006840507000205B055B0DD0701383D47620
:104030008046CA00012D33D02A4884468801624454
:104040008446B4446046826040461060002933D004
:10405000254AC90090466246414451603F223F33A1
:104060009343022C00D15B0020487A190168520169
:10407000B218D1601E4ACB18036051405A408023C9
:1040800088465B019A4228D84346A4061C438023F5
:104090007F197F01F61972681B062343136011E034
:1040A00014488446880162448446B444604682626F
:1040B00040461060002909D100236D0175196B601D
:1040C0000D4BEB60012080BCB846F0BD084AC9002A
:1040D0009046624641445162C0E7FEF72FFAD3E7AB
:1040E0003429002084001050040010503C2D002082
:1040F00000001050800010500001105010B50AF060
:104100001BF810BD10B57F200C0020404000E409D2
:10411000110000191A00034B4001C01800F05CF8B0
:10412000012010BD342900207F23180010B508405D
:10413000CA090B4203D107497D3B9B1A8B6640009D
:1041400080188022044B40010021C01812010AF09F
:1041500043F810BD00201150342900207F221300A5
:1041600010B50B400A4200D110BDC9095B005B18B5
:1041700004485B01C018002300220349C3700AF001
:104180002BF8F1E734290020FFF7FFFF80220D4BC9
:10419000520410B51A600C4B0C491A6010008B6861
:1041A0009843FBD10A4C9C2200212000FFF70CF918
:1041B0008022002152010748FFF706F909236367AF
:1041C00010BDC04600E0004000F0004000C00040CC
:1041D0000000115000001050002310B5C3820133BD
:1041E000828283760161040009F0E6FF002804D092
:1041F00080219023074A8902D150200009F0C4FF92
:10420000002802D00123237710BD200009F0CCFF45
:10421000FAE7C04600201150024B5878431E9841DF
:10422000C0B2704778260020024B18784007C00FB4
:104230007047C04678260020034B1878FF38431E8D
:104240009841C0B27047C046F4110020F8B5CE4680
:10425000474680B52A4E05003378FF2B01D0012058
:104260003DE0532200212748FFF7AEF8264C2000FE
:10427000FCF7BEFE254B1C60254C2000143CFCF7CF
:10428000D3FE200001F0CCFB224B234F1C60234BBC
:104290009846002F1ED01800FFF702FB204B186035
:1042A00043461B781F4A00249146002F14D04A46EB
:1042B000A3421AD89047434601341B78E4B2A34284
:1042C000F3D228003570FFF73BFE2800FFF720FEF1
:1042D000012004E01B78E5E7002C04D00020C0BCDE
:1042E000B946B046F8BD0F4AE4E70D4A63001268CC
:1042F0001B19DB00D318002BF0D01A68DAE7C04690
:10430000F41100207826002030260020CC26002042
:10431000EC110020D0260020A1380010BB2D002079
:1043200050230020B1500010F0B5DE4657464E46EF
:104330004546E0B591B001F097F8002800D1FCE0C7
:10434000C34BC44E9946C44B0DAC0293C34B9B4622
:104350004B46019335686A69EFF3108172B61368B2
:10436000002BFCD0BFF35F8FA9612800210001F072
:1043700085F96A69AB69BFF35F8F0021116083F330
:104380001088002800D1D8E06378082BE2D8019A81
:104390009B00D3589F466368002BDBD0A0689847EA
:1043A000D8E77F202179AC4D08404300CA09EB18BB
:1043B0009B181D0001273035EA78BA43EA70EA7885
:1043C0000337BA43EA70002800D1F2E0A44FDB7C47
:1043D000002F06D0A34A1278934200D2F1E09B1A34
:1043E000DBB2002B00D0A8E09F4DA3686279207853
:1043F000A847AFE70122984D01202B7804211343F1
:104400002B703323EA5C8243EA54EA5C8A43EA5421
:104410000133EA5C8243EA54EA5C00208A43EA54AE
:1044200023789A4600F0F8FC602223791A40602A2B
:1044300000D1B5E0402A00D1AFE0DB06DB0E012B56
:1044400000D1D3E0022B00D120E1002B00D0A7E067
:10445000202A00D153E1002A00D0A1E06379092B82
:1044600000D99DE0814A9B00D3589F46029B1B7850
:10447000DB0700D46EE77E4B002B00D16AE700E03B
:1044800000BF67E7744D2B78DB0700D462E7794BF8
:10449000002B00D15EE728780007C00F00E000BFC6
:1044A00058E7002523786E4F9A466E4B98461B7846
:1044B000002F49D05A46AB4263D8504690474346F6
:1044C00001351B78EDB2AB42F2D2634D532200218D
:1044D0002800FEF779FF1022FF21E81CFEF774FF89
:1044E00028002022FF211330FEF76EFF2EE000256A
:1044F00023785B4F9A465B4B98461B78002F2ED053
:104500005A469D4233D350469047434601351B7867
:10451000EDB2AB42F2D2504D532200212800FEF7FB
:1045200053FF1022FF21E81CFEF74EFF2800202237
:10453000FF211330FEF748FF14E011B0F0BCBB467A
:10454000B246A946A046F0BD002D38D000F05AFC76
:10455000494B002B00D1FDE600E000BFFAE6002D3C
:1045600019D03D4D00F04EFC2379AB70F2E6434A82
:104570006B0012685B19DB00D318002BF1D05A686E
:10458000C1E73E4A6B0012685B19DB00D318002BB1
:10459000DCD05A6891E7314AB5E7394800281AD18A
:1045A00020780021FFF7C0FD80212078FFF7BCFDB7
:1045B000D0E6A3686279207800F042FCCAE6274A78
:1045C0007BE72E4A58001268C318DB00D318002B73
:1045D000B3D01D6909E700F01FFC012150460EAA67
:1045E00000E000BF002800D0B4E6D9E7237A0F2B03
:1045F000D6D81B4FEB18DB78002F06D0194A12785B
:10460000934200D29CE09B1ADBB2002BC8D11D481C
:104610001D4D00F001FC01215046EB680EAA9847A1
:10462000002800D096E66022150023791D401A422A
:10463000B6D163790A3B012BB2D800F0EDFB637968
:104640000A2B00D17DE150460EA900F06FFB81E6F8
:1046500080E50010D0260020782600202D51001083
:10466000A1380010BB2D002021530010A4E500103C
:1046700000000000000000000000000050230020A7
:10468000000000003D5200100CE600107023217A5B
:104690000B4285D1C80984460F330B405B00E818F4
:1046A0006044C07CB14F8046002F07D0B0480078EE
:1046B000804550D34746381AC0B28046404600284D
:1046C0003AD1002A00D0F5E0AA4A90466779022044
:1046D0003A008243012A00D1F0E0002F00D05FE7CA
:1046E000EB1863443033DB780CAA9B07DB0F0232F4
:1046F0001380504602230EA900F02EFB2AE6237AEF
:104700000F2B00D94CE7994FEB18DB78002F06D020
:10471000974A1278934200D2F3E09B1ADBB2002B47
:1047200000D03DE79448934D00F076FB01215046C0
:10473000EB680EAA984755E79046002AC6D02FE7A7
:104740008E4A59001568CB18DB00ED18002D00D1FA
:1047500026E7E8685DE7474688487F0000684744E9
:104760008046FF00B844002AB0D04346002B00D159
:1047700016E7D86800F050FB434601215046DB683D
:104780000EAA98472EE7A37903931A006B789A42F2
:1047900007D06B78002B00D058E1039B002B00D092
:1047A000F8E0039B50460EA96B7000F0BFFAD1E50C
:1047B0006B780CAA02321370504601230EA900F048
:1047C000CBFAC7E5E3881A0AD8B20F2A00D9E7E680
:1047D0006B499300CB589F460EA800F023FB504630
:1047E000A179FFF79BFB02222B7813432B70B1E5D5
:1047F000E388012B00D0D3E608222B785046934360
:104800000EA92B7000F092FAA4E5022029780CABD7
:104810009A1C8B068908DB0F01400B4368E7E3888D
:10482000012B00D0BCE608222B78504613430EA97A
:104830002B7000F07BFA8DE5524B002B00D1AFE6D8
:1048400000E000BF021E00D1AAE6D37891781B02D7
:104850000B4350460EA900F07FFAC3E64A4B002BEB
:1048600000D19DE600E000BF021E00D198E6504650
:1048700013780EA900F070FAB4E62189FFF712FA56
:10488000021EF4D18CE6022A00D12DE13F4B002B11
:1048900000D185E600E000BF0200002A00D17FE6DB
:1048A000D3E7FFF7F7F9122302000EA9504600F0F4
:1048B00053FA97E62F4B304898465BE7E288002A88
:1048C00009D1334A1078012F26D0EF1867443037CA
:1048D000FB789B073ED54346002B00D13AE5D868CC
:1048E00000F09AFA43460121DB680EAA5046984729
:1048F000002000F091FA3423EB5CDB0700D529E5BA
:10490000A1E61E4A59001568CB18DB00ED18002DF2
:1049100000D145E6E86807E730229146EB1863448A
:1049200099444B46DB789B07D5D5FFF717FC4B46E0
:104930000222DB7893434A46D370D378BB43D370CB
:10494000C9E70CAB9A1C504601230EA9157000F064
:1049500003FAFFE4FFF7E8FB0222FB78134301228E
:10496000FB70FB781343FB70B5E7C046A13800101D
:10497000BB2D00200CE600103D52001050230020FB
:10498000CCE5001000000000000000000000000066
:10499000F4110020581EC0B2FFF780F9002800D1A2
:1049A000FEE543780793022B00D0F9E50121C27997
:1049B000B146931152110B400A4012015B0113439F
:1049C0002A782F318A4313432B7009239846804459
:1049D0004746A846C37882781B021343C318049342
:1049E0005C4B0993049BBB4200D881E07B78012299
:1049F0000B2B02D13B78FA78FF187B78042B23D15C
:104A00000025049B0B92DB1B9BB20593524B19783C
:104A10000693524B0A93524B08930A9B002B52D099
:104A2000099B089E8D4245D339005046059A984708
:104A30008446082802D9059A824262D2069B013533
:104A40001978EDB2A942E8D24E46A9E55046FFF7E3
:104A500055FB00229146434AAB7805922A004D4609
:104A6000914604933C4B3D4F98461B78002F1BD03A
:104A7000059A9D422CD350469047434601351B78FA
:104A8000EDB2AB42F2D24D46532200212800FEF790
:104A90009BFC1022FF213448FEF796FC2022FF21C8
:104AA0003248FEF791FC02E0002D1BD04D46049BDE
:104AB000AB7072E618232E4A6B431668F618002E68
:104AC000C2D0B368B0E7002DBED1224B244EABE775
:104AD000274A6B0012685B19DB00D318002BE5D066
:104AE0005A68C8E71F4AC6E7FFF7D8F80200D4E6BD
:104AF000204B45464E46002B00D152E600E000BF59
:104B00004FE60B9A012A1FD00021464609E0BB78E8
:104B1000CB18DBB2F318D878FF2895D10131DD70BE
:104B2000C9B29142F3D1B04666462B00390032003B
:104B30000E4800F01FFDB446069B67441B78AB424D
:104B400000D34FE74E462BE5024BB1689942DBD1CB
:104B5000079AD9E759510010BB2D0020A138001049
:104B60000CE600102D5100107B2600208B26002023
:104B70005023002000000000F8B557464E46DE46A0
:104B800045460C00E0B516001F00002A3CD01F4B24
:104B900000259A46702399461D4B9B4617E05B46BD
:104BA0002000997800F0A8FC00281FD02100404682
:104BB000FFF720FA002819D0A378DA09012A1CD0BF
:104BC0000A9A013513702378E418B5421CDA637829
:104BD000052B0BD1E3789B079B0FBB4206D15346B5
:104BE0004A461B789846A3781A42D8D00020F0BCD9
:104BF000BB46B246A946A046F8BD0B9A01351370D4
:104C00002378E418B542E2DB0120F0E7F41100203C
:104C100078260020802310B51B0184B001930E4B31
:104C200002901C6803916269EFF3108372B61168F9
:104C30000029FCD0BFF35F8FA361200001A900F021
:104C4000DFFD6269A369BFF35F8F0021116083F309
:104C5000108804B010BDC046D0260020702270B568
:104C6000094B0C001D788B781A4201D0002070BDD2
:104C7000064B2000997800F03FFC0028F6D0210078
:104C80002800FFF7B7F9F2E7F4110020782600209A
:104C90000B007F2010B51840DB0933334000044A75
:104CA000C018044B1168C01800F0E2FB10BDC046EC
:104CB000CC260020782600200B007F2010B518405D
:104CC000DB0933334000044AC018044B1168C01894
:104CD00000F0F6FB10BDC046CC2600207826002050
:104CE00070B57F240F480C4064000419CD09641985
:104CF0003034E078C00701D5002070BD0126E5788A
:104D0000094835430078E570FFF7FCF90028F4D135
:104D10000122E3789343E370E37803329343E37033
:104D2000EAE7C04678260020F411002070B5094C4F
:104D30000600082220000D00FEF74CFB0023802116
:104D4000E360A3602B783000994300220023FFF733
:104D5000C7FF70BD1C260020F8B5CE4647469046DA
:104D6000264E80B58146082230000D001F00FEF758
:104D700031FB4346B3600023F381EC79AB79240225
:104D80001C43231CBC4200D93B1C9FB2B381002CA6
:104D90000ED0002F18D04346002B2CD03B1C402FA8
:104DA0001BD89FB233787F2B1CD80021144A0FE008
:104DB00080212B780022994348460023FFF790FF7B
:104DC000C0BCB946B046F8BD7F2300223178994374
:104DD0003B004846FFF784FFF2E740239FB2337859
:104DE0007F2BE2D9064C3A0041462000FEF7F2FA4A
:104DF00080212200ECE70020E2E7C0461C260020CC
:104E00003826002010B5142200210248FEF7DCFAF3
:104E100010BDC0461C260020014B18617047C046DB
:104E20001C26002010B5054C010008222000FEF7CA
:104E3000D1FA0023A360E36010BDC0461C26002009
:104E400070B5394C1D0023780600DA09C9098A4279
:104E500013D00020002D00D070BD344B002B03D0A8
:104E600021003000FFF7B8F82369002B03D022009F
:104E70000321300098470120EEE7A0687F2B05D87A
:104E8000002834D02A002A49FEF7A4FAE289A16852
:104E90005219E38892B24919E281A160934214D079
:104EA0003F2D12D9A389981A051C80B240282AD810
:104EB0002078ADB27F2828D800219A4232D01C4AEF
:104EC0002B003000FFF70CFFC6E72369002B05D04D
:104ED000220002213000984700280AD08021237840
:104EE0000022994330000023FFF7FAFEB4E70020C8
:104EF000B2E700213000FFF717F930008021FFF7FB
:104F000013F90120A8E74025D2E79A4207D0084CC0
:104F10002A002000FEF75EFA80212200D0E78021DF
:104F20000022CDE70022CBE71C260020D93F00104D
:104F30003826002010B50400FFF76EF9002801D1D3
:104F4000002010BDFFF770F90028F9D1B2229200BD
:104F50006243034B01309B181B791840F1E7C046B0
:104F600054230020B2239B00434310B50248181875
:104F700000F050FB10BDC04664230020F0B5B22500
:104F8000AD0045432C00C646174F1034E41900B558
:104F9000200092B200F0C0FB0600200000F058FB99
:104FA0003F2803D8300080BCB846F0BD7B190020F4
:104FB000D9789846FFF76CFE0028F3D0200000F067
:104FC00047FB3F280AD992239B00EA184346D2198F
:104FD000D97800204023FFF783FEE3E74346002013
:104FE000D978FFF769FEDDE754230020F8B5040007
:104FF000FFF712F9002801D10020F8BDFFF714F9DE
:105000000028F9D1B2239B005C432500144E2435BF
:10501000AD19280000F0FEFA0028EDD03719002065
:10502000B978FFF735FE0028E6D0A2239B009C4606
:105030006444A41921002800402200F06DFBB978D7
:10504000051E08D0030022000020FFF749FE0028BB
:10505000D2D02800D1E70020FFF72EFECCE7C046D3
:105060005423002070B5B224A4004443094B05002A
:10507000E418200092B200F017FC0600200000F0B7
:10508000C9FA3F2801D8300070BD2800FFF7AEFFF5
:10509000F9E7C04678230020B2239B00434310B5B4
:1050A0000248181800F0D4FA10BDC046782300203A
:1050B000B222F0B51B4C83B0002120009200FEF715
:1050C00083F9FF236371184B80260025E3800127B5
:1050D0000823210020007600237332002781383115
:1050E0000095073B103000F05FFA210020003931B5
:1050F0003200FF3101230097243000F055FA8E234F
:105100009B00E6183000FBF773FF90239B0026629C
:10511000E6183000E561FBF76BFF2663656303B0BB
:10512000F0BDC0465423002000C2FFFF10B5094C5B
:10513000052200212000FEF747F92000243410301A
:1051400000F06EFC200000F06BFC0121200000F05C
:1051500087FC10BD54230020F0B54B79060083B0C6
:10516000022B02D18B79022B03D00025280003B03B
:10517000F0BD2F4FBB78002BF7D18B7809253B7002
:105180000C780C196378242B0BD1082A02D81FE065
:10519000AA421DD32378E4185D196378ADB2242B9D
:1051A000F6D0052B31D0042B12D163790A2B0FD105
:1051B000204B277801930133009302220223300011
:1051C000E119FFF7D9FC0028CFD00E35ED19ADB2AB
:1051D000194C200000F03CFA3F28C7D92600103EA9
:1051E0000020F178FFF754FD0028BFD0200000F028
:1051F0002FFA3F2817D98E239B00E218F93BF1784C
:10520000FF3B0020FFF76CFDB0E721003000FFF707
:1052100025FD0028A9D0A3787B7023785D19E418B8
:105220006378ADB2BFE7F1780020FFF745FD9DE759
:10523000542300205623002064230020F8B5602367
:1052400014001278050013400020202B12D12F4AA1
:105250006379277916781B023B439E420AD1637813
:10526000222B1AD007D8202B3CD0212B02D1012988
:1052700030D00120F8BD232BFCD101293FD00329D8
:10528000F7D1234B002BF4D0E178A378090200205A
:10529000194300E000BF0120ECE701292FD00329CA
:1052A000E7D101252E00A378E478023924021C43BB
:1052B0001471264024321000714000F0D1FB154BD0
:1052C000002BD6D06208002031002A4000E000BF49
:1052D0000120CFE70723210028000F4AFFF73CFDFC
:1052E0000120C7E70129F5D00329C2D10B4B002BC0
:1052F000BFD00020911DFEF7D9FA0120BAE72100A6
:105300002800FFF713FD0120B4E7C0465423002016
:1053100000000000000000005A230020AD380010FB
:10532000F8B545465746DE464E46E0B5464D1F00A9
:10533000EA7880460C00AB788A4246D000208B4247
:105340001AD0F0BCBB46B246A946A046F8BD3F4BBA
:10535000002B04D0484600F073F900286CD0484672
:1053600000F076F93F2807D94E46103E0020F1782C
:10537000FFF78EFC002851D1AB78A34201D0012069
:10538000DFE7334B002B02D0002000E000BF0020FD
:10539000FFF72CFE0028F2D12E4C200000F03AF945
:1053A0000028ECD1002FEAD0BF06E8D1243C4046CB
:1053B000A178FFF76DFC0028E1D0002300224046D1
:1053C000A178FFF78DFC0120BBE792239B00EE182C
:1053D00010239B46AB4431005846BAB200F064FA41
:1053E0001D4BD946002BB2D06B79FF2BAFD0002FCD
:1053F000ADD0F219924603E00136B245A7D06B79E1
:1054000032789A42F8D1484600F01AF90028F3D1D0
:105410004B46103B597900E000BFEDE7484600F0ED
:1054200017F93F280BD98E2292004023F1784A4485
:105430000020FFF755FC9FE7FEF7ACFB8FE7F17804
:105440000020FFF739FC97E754230020953B00101C
:1054500000000000782300200000000010B50020AC
:10546000FEF7F4FE10BDC04610B5FEF7E5FE10BD18
:10547000037870B5DB0704000E00DD0F002B17D199
:1054800003785B0701D5280070BD01213000494237
:1054900008F06AFE2378DB07DD0F002B0AD12378A2
:1054A0005B0708D40422237801251343237002E00C
:1054B0000025E8E70025300008F02EFEE3E7C046AF
:1054C00070B50C00012106004942200008F04CFE96
:1054D00033785B07DD0F002B04DB200008F01CFE97
:1054E000280070BD3378DB0704D40422337893435B
:1054F0003370F2E70025F0E7437902791B0213438A
:10550000C2785B0592075B0D920F022A1DD0032A19
:105510000CD00020012A08D102394A425141124AD6
:105520009446614499424041C0B2704702394A1ED4
:1055300091410E4A494211408022D20094460020F7
:10554000614499424041C0B2EFE7022905D00020F2
:1055500040229A424041C0B2E7E7054A98184342C8
:105560005841C0B2E1E7C046FF03000040FCFFFF26
:1055700000FEFFFF8A1870B5914207D27F264C7853
:10558000052C04D00C7809198A42F8D870BD340073
:105590008D782C4064000419ED0963550C780919C5
:1055A0008A42ECD8F2E7C046F0B5C64600B5040022
:1055B00006A805788020884617001E000002824257
:1055C00026D8E068002803D00121494208F0CCFD2C
:1055D0002069002803D00121494208F0C5FD434657
:1055E000236073045B0CED031D430023E0686381BB
:1055F000A780E5802381002801D008F08DFD206977
:10560000002801D008F088FD012080BCB846F0BD1C
:105610000020FAE710B5048941898288A3B288B2D4
:105620008C4207D31B1A9BB2101C9A4200D9181C3B
:1056300080B210BD5100091A5B189BB2F4E7C04656
:1056400003894089181A43425841C0B27047C04686
:1056500010B5048941898288A3B288B28C4207D3ED
:105660001B1A9BB200209A4201D9D21A90B210BDE7
:105670005100091A5B189BB2F4E7C04670B50400EC
:1056800000690E00002803D00121494208F06CFD9A
:1056900025896089A288A9B283B285422CD3CD1A0C
:1056A000ADB2002D2ED0AA4208D2914230D3891A31
:1056B0008BB263819A4203D89B1A9BB29A42FBD960
:1056C000E28821685204520C53433000C918FDF798
:1056D00081FE63890125591C89B2A2888B4213D9A6
:1056E00000215200891A89B220696181002801D005
:1056F00008F012FD280070BD5500ED1A4D19ADB22D
:10570000002DD0D1618989B252009142ECDBE9E7EA
:1057100089188BB26381CDE7F0B546464F46D64631
:10572000C0B50600006989469046002803D00121D3
:10573000494208F019FD31897289B5888BB294B25B
:10574000914254D31F1BBFB2002F4AD0BD4205D295
:10575000AB4251D25B199CB22F0074814346B845CD
:105760003DD89FB2A54203D8641BA4B2A542FBD981
:10577000F28831685204520C904662432B1B9BB254
:10578000891842469F4225D953439BB21A00484686
:105790009A46FDF71FFE434648467D1B64195C434D
:1057A00031685044A2B2FDF715FE7189B588CB1956
:1057B0009BB26A00994216D99B1A9BB230697381D9
:1057C000002801D008F0A8FC3800E0BCBA46B14679
:1057D000A846F0BD48467A43FDF7FCFDE5E73B1CD3
:1057E000BFE773899BB26A009342E7DBE4E76F008F
:1057F0003F1BDF19BFB2A7E75B1B9CB2ACE7C046FB
:10580000F8B50400C0680E00002803D00121494209
:1058100008F0AAFC258920896189A288ADB283B2EB
:105820008FB2884229D3DB1B9BB29A4209D8E77911
:10583000FF0906D1E068002801D008F06DFC3800AF
:10584000F8BD95421ED32B009B1A9BB29342FBD20C
:10585000E28820685204520C53433100C018FDF70F
:10586000B9FD6B1C9BB2A2889D4218D9002352003F
:105870009B1A9BB201272381DCE75100C91B5B18EF
:105880009BB2D2E72B00E28820685204520C5343AB
:105890003100C018FDF79EFD0135A288ABB2520061
:1058A0009342E7DBE4E7C046F0B557464546DE469F
:1058B0004E46E0B5140005000F0083B0002A75D0F5
:1058C000C068002803D00121494208F04DFC2E8910
:1058D000E9796A89AB88B6B292B2C90945D19642D4
:1058E00000D36DE059008A1AB21892B2002189469D
:1058F0009A4234D29A1A111C92B2A24200D9211CA7
:105900008AB29146EA885204520C90464A46B2182E
:1059100092B292464A46D21A92B2934634009E42BE
:1059200003D3E41AA4B29C42FBD2424662432868E5
:105930001B1B9BB2801842464B4554D34B46390043
:105940005A43FDF747FDAB885B00B24501D39A454A
:1059500003DB5246D31A9BB29A4653462B81E86822
:10596000002825D008F0D8FB22E0E9884904490C3A
:1059700088469C4227D2964247D3B11A89B28C46B8
:105980005800E11A89B28B4661460919814208DB49
:10599000D11889B20E1BB6B28A46B2423BD9361A2A
:1059A000B6B2A21992B29246A146B7E70023994631
:1059B000484603B0F0BCBB46B246A946A046F0BD7F
:1059C000B21A92B292E700218946002BC7D0414615
:1059D000E41A4C431600D118002289B28A4699462F
:1059E00093463F199AE753439BB21A0039005C442F
:1059F0000193FDF7EFFC414622004A43019B2868D2
:105A000092B2F918FDF7E6FC9DE75800811A71186B
:105A100089B28C46B5E7A146B04200DD7EE7BEE71D
:105A200010B50400C068002803D00121494208F0E5
:105A30009BFB2069002803D00121494208F094FB18
:105A40000023E06863812381002801D008F064FB13
:105A50002069002801D008F05FFB012010BDC0467E
:105A600070B50400C0680D00002803D00121494230
:105A700008F07AFB2069002803D00121494208F090
:105A800073FB7F21E379ED011940E0682943E1715F
:105A9000002801D008F040FB2069002801D008F060
:105AA0003BFB012070BDC04610B5FDF757FC10BD93
:105AB00010B5FDF771FC10BD02007F2801D880B23F
:105AC0007047802300205B029A42F9D2B623FF334D
:105AD0009942F5D10023074904E001339BB202311A
